:020000040020DA
:10000000E80B002091022000E10220008D02200078
:100010008D0220008D0220008D02200000000000D3
:100020000000000000000000000000008D02200021
:100030008D022000000000008D0220005D6B20007A
:1000400011702000E56F2000B96F20008D6F200037
:1000500000000000196D2000256D20008D02200099
:100060008D022000000000000000000000000000E1
:1000700000000000000000008D02200000000000D1
:1000800000000000000000008D0220008D02200012
:100090008D0220008D0220008D0220008D022000A4
:1000A0008D0220008D0220008D0220008D02200094
:1000B0008D0220008D0220008D0220008D02200084
:1000C0008D0220008D0220008D0220008D02200074
:1000D0008D02200000000000000000000000000071
:1000E0000000000000000000000000000000000010
:1000F0000000000000000000A9772000B977200070
:1001000000000000000000000000000000000000EF
:1001100000000000000000000000000000000000DF
:1001200000000000000000000000000000000000CF
:1001300000000000000000000000000000000000BF
:1001400000000000000000000000000000000000AF
:10015000000000000000000000000000000000009F
:10016000000000000000000000000000000000008F
:10017000000000000000000000000000000000007F
:10018000000000000000000000000000000000006F
:10019000000000000000000000000000000000005F
:1001A000000000000000000000000000000000004F
:1001B000000000000000000000000000000000003F
:1001C000000000000000000000000000000000002F
:1001D000000000000000000000000000000000001F
:1001E000000000000000000000000000000000000F
:1001F00000000000000000000000000000000000FF
:1002000000000000000000000000000000000000EE
:1002100000000000000000000000000000000000DE
:1002200000000000000000000000000000000000CE
:1002300000000000000000000000000000000000BE
:1002400000000000000000000000000000000000AE
:10025000000000000000000000000000000000009E
:10026000000000000000000000000000000000008E
:100270008D0220006D7420003D7420008D0220004E
:100280008D022000B96B20008D022000FEE7C046E1
:100290000D4BFF2210B500211A6003E00B4B5B5899
:1002A000435004310A480B4B42189A42F6D30A488D
:1002B0000A494FF000028842B8BF40F8042BFADB2D
:1002C00006F052F9FEE7C046B4200D402F4F210042
:1002D00040000020D7030020D80300205D6C0020E0
:1002E00010B5FFF7D5FFFEE773B54FF0FF300BF009
:1002F000E1F90646B11C10227D4811F0BDF87D4899
:1003000007F0A0FB7C4807F09DFB7C4C78480DF083
:1003100075FD0A2007F02EFB1022794804F1160122
:1003200011F0AAF8774B94F85A201A70237D13F035
:1003300010050CD010227249734811F09DF87248D4
:1003400072490BF0F7FA70480021012208E004F12D
:10035000260110226C4811F08FF86B4829460322C1
:100360000BF0B0FB634807F06DFB694807F06AFBD0
:1003700065480DF043FD674C0A2007F0FBFA66491B
:100380001022664811F078F820466549102211F0D5
:1003900073F823886BB963885BB9A3884BB9E3888A
:1003A0003BB923892BB963891BB9A3890BB9E389AD
:1003B0001BB1584800210BF097FE5A4A5A4C13784B
:1003C0004E492370537863709378A3704FF0FF33D6
:1003D000E3702371D37863711379A3715379E37157
:1003E0000B7D13F020050CD010224C494F4811F022
:1003F00043F84E4821460BF09DFA4C48002101225B
:1004000007E004311022494811F036F847482946E0
:1004100003220BF057FB374807F014FB444807F062
:1004200011FB42480DF0EAFC0A20424C07F0A2FA08
:1004300030460BF0E3FA48F2FE0323804FF000034E
:100440006380A380E380204637490BF073FA0021D4
:1004500001222046294C0BF035FB002101222448C3
:100460000BF030FBA26EB4F8663094F85B1000928B
:10047000E26E2A480192C3F30022DBB20BF07AFB52
:10048000B4F8702012F4807F07D01D4894F85A10F9
:10049000D2B2B4F8723003F0F1FB184B1B7D13F0AD
:1004A000080F04D0134807F0CDFA234803E01148A1
:1004B00007F0C8FA2148114C07F064FA94F8740068
:1004C0000B490EF01DF91E4B0D49186094F85A2087
:1004D0000EF02CF8074807F0B5FA1A4807F052FA60
:1004E000044807F0AFFA184807F04CFA7CBDC04644
:1004F00096490020D8212100E52121007C5E0020C2
:1005000086490020DE490020A6490020085F00201F
:1005100003222100EC490020B25E0020CE490020D9
:10052000C25E002080490020DF490020B64900203B
:1005300028222100004A00204D2221005F222100B4
:10054000FC490020722221008B22210070B5048812
:1005500040F263139C42054642D004D85CB1B4F526
:10056000AE7F75D125E040F283139C425AD002330E
:100570009C426DD162E008F027F8394B187006F004
:10058000A5FA384B1860384807F05CFA374807F08E
:10059000F9F904F037F804F055F83548214608F029
:1005A000E9F808E02068852108F038F84FF4AE72C9
:1005B00036E0852951D12F4B2F4C1A68002AF1D0F3
:1005C0002E4B4FF000021A802D48002108F0D2F87F
:1005D00020688521002208F021F840F263132BE007
:1005E00085293AD103F01CFB03F07CFBFFF77CFE6E
:1005F0002448002108F0BEF82348002108F0BAF88A
:100600002248002108F0B6F80021214808F0B2F88D
:10061000154807F017FA1F4807F0B4F940F28312A3
:100620002A801AE00E4B1B788B4216D11A48802183
:1006300007F0C2FF40F285132B800EE088290CD111
:10064000094807F0FFF9154807F09CF906F00EFC81
:100650004FF000022A80032000E0012070BDC04658
:10066000114A0020E8490020D8212100A2222100BF
:10067000B0000020E80B0020841A0020FC5E00205F
:100680006C020020500000206C0000207C00002044
:1006900090000020CC222100F00B0020DF2221005E
:1006A000014B00221A607047380C002010B5044638
:1006B0002388104613B1772B0FD105E002F0E8FE36
:1006C0004FF07703238003E0064B1B788B4201D069
:1006D000012006E003F028F8F2E74FF00003238042
:1006E000032010BD5B6C00200FB437B5084D06AB7E
:1006F0002C68084853F8042B0019C4F500710193C5
:1007000007F0B8F900192860BDE83E4004B0704712
:10071000380C00206C440020014610B50148FFF75A
:10072000E3FF10BD0123210010B50248FFF7DCFFF5
:1007300010BDC0462823210070B5828D40F2E553DC
:100740009A42054620D004D85AB1013B9A4258D16A
:100750000AE040F2EC539A4236D003339A4250D129
:1007600042E040F2E4538385294B1C68204610F098
:10077000F1FF2146024605F12C000DF077F8012823
:1007800044D940F2E553AB85224B1C68204610F05B
:10079000E1FF2146024605F12C000DF067F8012823
:1007A00034D9FFF77DFF1C48FFF7B6FF1B48FFF762
:1007B0009BFF1B48FFF798FFFFF7B6FF1948FFF7AD
:1007C00093FF40F2EC53AB85174810F0C3FF164976
:1007D000024605F12C000DF049F8012816D9FFF763
:1007E0005FFF40F2EF53AB85104B1C68204610F0C2
:1007F000B1FF2146024605F12C000DF037F8012823
:1008000004D94FF00003AB85032000E0002070BD49
:10081000801F21007C1F21008223210086232100CC
:100820009B232100B62321006C440020781F210067
:1008300070B5828D40F273539A42054646D008D86F
:1008400040F26E518A4218D0043B9A4226D09AB1A7
:10085000A3E040F293539A426DD004D80A3B9A42E7
:1008600040F09B804EE0B2F5B36F79D040F29B53DD
:100870009A4240F0928083E081854B4B1C68204671
:1008800010F068FF2146024605F12C000CF0EEFF47
:10089000012840F2878040F26F53AB85434B1C68C0
:1008A000204610F057FF2146024605F12C000CF0BF
:1008B000DDFF012876D9FFF7F3FE3D48FFF72CFF57
:1008C0003C48FFF711FF40F27353AB853A4810F0F4
:1008D00041FF3949024605F12C000CF0C7FF012801
:1008E00060D9FFF7DDFE3548FFF7FEFE3448FFF71D
:1008F000FBFE3448FFF7F8FE3348FFF7F5FE40F201
:100900008953AB852C4810F025FF2B49024605F191
:100910002C000CF0ABFF012844D9FFF7C1FE2B4897
:10092000FFF7E2FE2A48FFF7DFFE2A48FFF7DCFE6A
:1009300040F29353AB85204810F00CFF1E4902464D
:1009400005F12C000CF092FF01282BD9FFF7A8FE2F
:10095000FFF7EAFE2048FFF7C7FE4FF4B363AB850D
:10096000154810F0F7FE1449024605F12C000CF072
:100970007DFF012816D9FFF793FE40F29B53AB850C
:10098000164B1C68204610F0E5FE2146024605F194
:100990002C000CF06BFF012804D94FF00003AB854D
:1009A000032000E0002070BD801F21007C1F21007B
:1009B000C3232100862321006C440020D223210080
:1009C000EA232100FB2321002024210059242100B7
:1009D000702421009A242100B6232100781F2100D1
:1009E00070B5828D40F2DD439A4205463ED007D86D
:1009F000B2F59B6F12D0043B9A421FD05AB183E0EC
:100A000040F25F539A4262D003339A426FD0083B60
:100A10009A4279D146E04FF49B6383853E4B1C6834
:100A2000204610F097FE2146024605F12C000CF0FE
:100A30001DFF01286DD940F2D943AB85374B1C68A7
:100A4000204610F087FE2146024605F12C000CF0EE
:100A50000DFF01285DD9FFF723FE3148FFF75CFE4B
:100A60003048FFF741FE40F2DD43AB852E4810F0E1
:100A700071FE2D49024605F12C000CF0F7FE01280D
:100A800047D9FFF70DFE2948FFF72EFE2848FFF74C
:100A90002BFE2848FFF728FE2748FFF725FE40F2E7
:100AA0005A53AB85204810F055FE1F49024605F108
:100AB0002C000CF0DBFE01282BD9FFF7F1FDFFF72E
:100AC00033FE1E48FFF710FE40F25F53AB85164819
:100AD00010F040FE1449024605F12C000CF0C6FE51
:100AE000012816D9FFF7DCFD40F26253AB85144BA9
:100AF0001C68204610F02EFE2146024605F12C000F
:100B00000CF0B4FE012804D94FF00003AB8503209C
:100B100000E0002070BDC046801F21007C1F210026
:100B2000E3242100862321006C440020EE242100D0
:100B3000FA242100212521002E252100B6232100A1
:100B4000781F21002DE9F0410024074625463B1976
:100B50003A5D5B7803EB02239EB246B9002D0BDBB6
:100B600005F1010510D10B48FFF7BEFD0CE0002D8B
:100B700002DD4FF0FF3503E014B10748FFF7B4FD85
:100B800006483146FFF7B0FD0234102CDFD1BDE836
:100B9000F081C04656252100572521005925210006
:100BA00070B50546002403E014B10548FFF79CFD2D
:100BB000295D04480134FFF797FD082CF4D170BD7E
:100BC00057252100592521002DE9F0410024074631
:100BD00025463B193A5D5B7803EB02239EB246B98A
:100BE000002D0BDB05F1010510D10B48FFF77CFD53
:100BF0000CE0002D02DD4FF0FF3503E014B1074893
:100C0000FFF772FD06483146FFF76EFD0234102CE7
:100C1000DFD1BDE8F081C0465625210057252100CF
:100C20005925210070B5828D40F2A9539A4205469C
:100C300025D005D882B1023B9A4240F092800EE066
:100C4000B2F5BA6F67D040F2D3539A4273D0293BC2
:100C50009A4240F086801DE040F2A7528285444BC4
:100C60001C68204610F076FD2146024605F12C0056
:100C70000CF0FCFD012879D940F2A953AB853A224A
:100C800005F12C003B490CF0F1FD01286ED940F232
:100C9000AA52AA85384B1C68204610F05BFD2146FD
:100CA000024605F12C000CF0E1FD01285ED9FFF7AA
:100CB000F7FC324B1B78032B0BD8DFE803F0020460
:100CC00006082F4806E02F4804E02F4802E02F488E
:100CD00000E02F48FFF720FD2E48FFF705FD274BCA
:100CE0001B78032B0BD8DFE803F0020406082A4820
:100CF00006E02A4804E02A4802E02A4800E02A48A0
:100D0000FFF7F2FC2948FFF7EFFC2948FFF7ECFC5E
:100D10004FF4BA63AB85274810F01CFD2549024605
:100D200005F12C000CF0A2FD01281FD9FFF7B8FC3B
:100D300040F2D352AA85204B1C68204610F00AFDD1
:100D40002146024605F12C000CF090FD01280DD93A
:100D50000A4B1B782BB1194B19481978002207F060
:100D60005DFC4FF00003AB85032000E0002070BD68
:100D7000801F21005C2521007C1F2100104A0020DB
:100D8000972521009C252100A4252100AB252100C9
:100D9000B025210086232100B6252100C825210089
:100DA000DF252100F5252100092621001826210034
:100DB000212321006C440020781F2100114A0020CB
:100DC000400000202DE9F041074605F075FEA44BD8
:100DD0001860BA8D40F284439A4200F04A822AD8C1
:100DE000193B9A4200F0CD8010D81C3B9A4253D058
:100DF00003D8002A4FD000F011BDB2F58A6F5CD045
:100E000040F257439A4240F0098581E040F277432F
:100E10009A4200F0788104D8083B9A4240F0FE8460
:100E2000FBE040F27C439A4200F0B78103339A42E0
:100E300040F0F484DBE140F2A5439A4200F0D58310
:100E400013D8B2F5926F00F01B8304D81B3B9A4273
:100E500040F0E48445E240F295439A4200F03A8340
:100E600006339A4240F0DA847BE340F2B6439A427A
:100E700000F08B8404D80B3B9A4240F0CF84F5E31A
:100E800040F2C6439A4200F0AE8401339A4240F0E9
:100E9000C58400F0B6BCBB85724B1C68204610F0C0
:100EA00059FC2146024607F12C000CF0DFFC01281A
:100EB00040F2B9844FF48A63BB856B4B1C682046B3
:100EC00010F048FC2146024607F12C000CF0CEFC45
:100ED000012840F2A884FFF7E3FB6448FFF71CFCFD
:100EE0006348FFF701FC6348FFF7FEFB6248FFF72A
:100EF000FBFB624AB2F8583092F8561013F0010F1B
:100F00000CBF5F485F48FFF7EFFB40F25743BB85DC
:100F10005D4810F01FFC5C49024607F12C000CF004
:100F2000A5FC012840F27F84544CFFF7B9FB5748D9
:100F3000FFF7DAFBB4F8583013F0010F08D154482A
:100F4000FFF7D2FB04F11600FFF7FCFD514807E064
:100F50005148FFF7C9FB04F11600FFF7F3FD4F48B6
:100F6000FFF7C2FB454AB2F8583092F85A1013F016
:100F7000010F0CBF4A484B48FFF7B6FB40F26B43EA
:100F8000BB85414810F0E6FB3F49024607F12C00C3
:100F90000CF06CFC012840F24684384EFFF780FBD1
:100FA000B6F8583013F0010F337D11D13E4D3F4C50
:100FB00013F0100F14BF294621463D48FFF794FB5C
:100FC000337D3C4813F0100F0CBF2946214606E044
:100FD00013F0100F3849394B394808BF1946274CD0
:100FE000FFF782FBB4F8583013F0010F08D13548F1
:100FF000FFF77AFB04F12600FFF7A4FD254807E080
:101000003148FFF771FB04F12600FFF79BFD2348F1
:10101000FFF76AFB40F26F43BB851B4810F09AFB59
:101020001949024607F12C000CF020FC012840F27F
:10103000FA83FFF735FB114C2448FFF755FB1348A3
:10104000FFF752FBB4F8583013F0010F42D120489B
:10105000FFF74AFB04F13600FFF774FD0D4841E04D
:101060002C0C0020801F21007C1F210068262100FD
:1010700076262100AE262100C32621007C5E0020BA
:10108000DE2621001E2721006C440020312721008C
:101090004B272100DE3321007E272100413521002E
:1010A00088272100D2272100EB2721008B3E210039
:1010B000F32721004B282100CF232100882821007D
:1010C0008C282100B1282100ED282100FF282100D3
:1010D0001A292100AB48FFF707FB04F13600FFF7A0
:1010E00031FDA948FFF700FBA84AB2F8583092F842
:1010F0005B1013F0010F0CBFA548A648FFF7F4FAE8
:1011000040F27743BB85A44810F024FBA249024675
:1011100007F12C000CF0AAFB012840F284839B4EBF
:10112000FFF7BEFAB6F8583013F0010F337D11D136
:101130009A4D9B4C13F0200F14BF29462146994825
:10114000FFF7D2FA337D984813F0200F0CBF2946E1
:10115000214606E013F0200F9449954B954808BFAF
:1011600019468A4CFFF7C0FAB4F8583013F0010F53
:1011700007D19148FFF7B8FA201DFFF7E3FC8F482D
:1011800006E08F48FFF7B0FA201DFFF7DBFC7E4832
:10119000FFF7AAFA40F27C43BB857F4810F0DAFAE9
:1011A0007D49024607F12C000CF060FB012840F25B
:1011B0003A83764CFFF774FAB4F8583013F0010F05
:1011C00008D18048FFF790FA04F14600FFF7BAFC17
:1011D0007A4807E07C48FFF787FA04F14600FFF7FA
:1011E000B1FC6948FFF780FA40F27F43BB856A484B
:1011F00010F0B0FA6849024607F12C000CF036FBFB
:10120000012840F21083614EFFF74AFA6F48FFF75A
:101210006BFAB6F8583013F0010F337D11D15F4DE2
:101220005F4C13F0080F14BF294621466848FFF7AA
:101230005BFA337D674813F0080F0CBF294621463F
:1012400006E013F0080F6449644B654808BF19466F
:10125000FFF74AFA4D4AB2F85830B2F85E1013F070
:10126000010F0CBF5F486048FFF73EFA40F284432D
:10127000BB85494810F06EFA4749024607F12C0039
:101280000CF0F4FA012840F2CE82FFF709FA574831
:10129000FFF72AFA3D4AB2F85830B2F8601013F05E
:1012A000010F0CBF52485348FFF71EFA374AB2F8F5
:1012B0005830B2F8621013F0010F0CBF4E484F487F
:1012C000FFF712FA314AB2F85830B2F8641013F04E
:1012D000010F0CBF4A484B48FFF706FA40F28A4319
:1012E000BB852D4810F036FA2B49024607F12C0039
:1012F0000CF0BCFA012840F29682244EFFF7D0F998
:101300004148FFF7F1F9B6F8583013F0010FB6F87D
:10131000663012D1214D224C13F4807F14BF294630
:1013200021463A48FFF7E0F9B6F86630384813F43A
:10133000807F0CBF2946214606E013F4807F1B49BD
:101340001B4B344808BF1946104EFFF7CDF9B6F8CD
:10135000583013F0010FB6F8663061D10F4D104CC4
:1013600013F0800F14BF294621462B48FFF7BCF924
:10137000B6F86630294813F0800F0CBF2946214685
:1013800055E0C0467E272100413521007C5E0020CB
:101390004D292100D22721006C440020EB27210099
:1013A0008B3E210097292100EF292100CF23210026
:1013B000882821008C2821002C2A2100DE332100DE
:1013C000ED282100682A2100A02A2100AF2A21004F
:1013D000C82A21001B2B2100602B21005E2B21003D
:1013E000672B21007C2B2100C82B2100E32B21003F
:1013F000F52B2100422C21005A2C2100A72C210082
:10140000BF2C2100062D21001B2D2100342D210091
:10141000882D2100C32D2100E62D2100362E21002C
:1014200013F0800FA649A74BA74808BF1946A74E3F
:10143000FFF75AF9B6F8583013F0010FB6F86630D6
:1014400012D1A34DA34C13F0400F14BF29462146DF
:10145000A148FFF749F9B6F86630A04813F0400FED
:101460000CBF2946214606E013F0400F9449954BE6
:101470009B4808BF1946FFF737F94FF49263BB85C5
:10148000984810F067F99749024607F12C000CF0D4
:10149000EDF9012840F2C781FFF702F98B4AB2F853
:1014A0005830916E13F0010F0CBF8F488F48FFF733
:1014B0001BF9864AB2F85830D16E13F0010F0CBFF9
:1014C0008B488C48FFF710F98B48FFF70DF940F275
:1014D0009543BB85834810F03DF98249024607F1E8
:1014E0002C000CF0C3F9012840F29D81774EFFF7E4
:1014F000D7F88248FFF7F8F8B6F8583013F0010F24
:10150000B6F8703012D1724D724C13F4807F14BF54
:10151000294621467A48FFF7E7F8B6F8703079484F
:1015200013F4807F0CBF2946214606E013F4807F28
:101530006349644B744808BF1946FFF7D5F8634AFE
:10154000B2F85830B2F8721013F0010F0CBF6F48A8
:101550006F48FFF7C9F86848FFF7C6F840F29B43A9
:10156000BB85604810F0F6F85E49024607F12C0092
:101570000CF07CF9012840F25681FFF791F865489C
:10158000FFF7B2F8514AB2F8583092F8741013F0DD
:10159000010F0CBF60486148FFF7A6F84B4AB2F84C
:1015A000583092F8751013F0010F0CBF5C485D487D
:1015B000FFF79AF8454AB2F8583092F8761013F0CF
:1015C000010F0CBF58485948FFF78EF83F4AB2F850
:1015D000583092F8771013F0010F0CBF544855485B
:1015E000FFF782F840F2A543BB853E4810F0B2F801
:1015F0003C49024607F12C000CF038F9012840F272
:101600001281FFF74DF8314AB2F8583092F878104D
:1016100013F0010F0CBF48484848FFF765F82B4A04
:10162000B2F85830B2F87A1013F0010F0CBF4448EA
:101630004448FFF759F8254AB2F8583092F8791023
:1016400013F0010F0CBF40483148FFF74DF81F4A17
:10165000B2F85830B2F87C1013F0010F0CBF3B48C1
:101660003B48FFF741F840F2AB43BB851D4810F003
:1016700071F81C49024607F12C000CF0F7F801281C
:1016800040F2D180114EFFF70BF83248FFF72CF8EB
:10169000B6F8583013F0010F337D61D10C4D0D4C6D
:1016A00013F0010F14BF294621462B48FFF71CF801
:1016B000337D2A4813F0010F0CBF2946214656E01E
:1016C000CF23210088282100762E21007C5E002077
:1016D000EB2721008B3E2100902E2100E92E2100D6
:1016E000292F21006C4400204C2F21009E2F210027
:1016F000BB2F210011302100413521003230210063
:1017000056302100A1302100DF302100F6302100C9
:10171000453121005F31210080312100CC31210091
:10172000E33121002D322100433221009A32210081
:10173000BB3221000B3321002733210079332100F4
:1017400093332100E9332100073421005B34210069
:10175000B1342100D0342100F0342100483521007B
:1017600013F0010F3149324B324808BF1946FEF7DA
:10177000BBFF314BB3F8583013F0010F02D12F48A3
:10178000FEF7B2FF40F2B643BB852D480FF0E2FFF3
:101790002B49024607F12C000CF068F8012842D9C9
:1017A000FEF77EFFFEF7C0FF264B27481988013160
:1017B00089B21980FEF798FF05F07EF9234B642269
:1017C0001968C1F101010918196001F07F035A433A
:1017D0001F48C909D209FEF787FF1E48FEF784FF9C
:1017E00040F2C643BB8516480FF0B4FF14490246C9
:1017F00007F12C000CF03AF8012814D940F2C74345
:10180000BB85154B1C6820460FF0A4FF21460246FD
:1018100007F12C000CF02AF8012804D94FF000033E
:10182000BB85032000E00020BDE8F08157222100A5
:1018300069222100893521007C5E0020A435210029
:101840006C440020EA3C0020D73521002C0C0020FD
:10185000FC352100B6232100781F21002DE9F0413D
:10186000074605F029F9984B1860BA8D40F25623C7
:101870009A4200F0ED800ED84D3B9A4225D001D817
:1018800012B324E240F20A239A422FD008339A423C
:1018900040F01D8246E040F2B3239A4200F0CE8130
:1018A00008D8413B9A4200F05A8105339A4240F0F1
:1018B0000E8271E140F2C3239A4200F0ED81B2F54D
:1018C000317F40F00482F5E1BB85804B1C682046E7
:1018D0000FF040FF2146024607F12C000BF0C6FF37
:1018E000012840F2F98140F20A23BB85784B1C683D
:1018F00020460FF02FFF2146024607F12C000BF087
:10190000B5FF012840F2E881FEF7CAFE7148FEF7F4
:1019100003FF7148FEF7E8FE7048FEF7E5FE40F26F
:101920001223BB856E480FF015FF6D49024607F183
:101930002C000BF09BFF012840F2CE81FEF7B0FE99
:10194000684B00221A601CE134246343664DEB5C53
:10195000002B00F012816548FEF7C6FE306804FBDC
:1019600000500230FFF730F96148FEF7BDFE3068E5
:1019700004FB0052917A022910D1D37A122B06D19E
:10198000137B743BDBB2012B14D85A485BE01A2B53
:1019900010D1137B4C2B0DD1574854E0C32907D1EC
:1019A000D37A0C2B4AD1137B002B47D153484AE002
:1019B00002292DD14C4B342202FB0032D37A802BEA
:1019C00004D1137BE12B23D14D483CE0122B04D1F1
:1019D000137B4B2B1CD14B4835E0502B0BD1137B89
:1019E000C22B15D1537BA82B12D1937B03F0F003AC
:1019F000C02B0DD10AE0052B0AD1137B0C2B07D18C
:101A0000537B2A2B1AD1937B8C2B17D13E481AE09B
:101A1000EE2913D1344A342303FB0020C37A472B29
:101A20000CD1037B3C2B09D1437B4D2B04D1837B11
:101A3000122B01D1354806E0354804E011F0020FC1
:101A40000CBF34483448FEF74FFE40F25623BB85A6
:101A500023480FF07FFE2249024607F12C000BF0CD
:101A600005FF012840F238811E4EFEF719FE2B4873
:101A7000FEF73AFE1C4C3068342505FB004002306E
:101A8000FFF7A2F82648FEF72FFE2648FEF72CFEA9
:101A9000306805FB00400230FFF796F82248FEF759
:101AA00023FE336805FB03429369002B40D01F4897
:101AB000118CFEF719FE306805FB00402230FFF75D
:101AC00083F80B4835E0C046300C0020801F210011
:101AD0007C1F210012362100862321001A362100A6
:101AE0006C440020180C0020144A0020BC36210051
:101AF00000372100C5362100DB362100F1362100F8
:101B00000637210017372100233721003F372100F6
:101B1000543721006D37210083372100943721008D
:101B2000AA372100BA372100D0372100E63721003B
:101B30006B48FEF7D9FD04F0BFFF6A4B6A4A1B6889
:101B4000342101FB03235B69C11AC9096748FEF709
:101B5000CBFD6748FEF7C8FD40F27223BB856548A0
:101B60000FF0F8FD6349024607F12C000BF07EFEF2
:101B7000012840F2B180FEF793FD5A4A1368013301
:101B80001360584E3368632B7FF7DEAE5A48FEF77A
:101B9000ABFD40F27723BB8556480FF0DBFD55497E
:101BA000024607F12C000BF061FE012840F2948000
:101BB000FEF776FD5148FEF797FD514B51489A7953
:101BC000D97901EB0221FEF78FFD464B00221A6006
:101BD0002AE034224243444B99189B5C03B34B8C5C
:101BE0006BB98B8C5BB9CB8C4BB90B8D3BB94B8DE7
:101BF0002BB98B8D1BB9CB8D0BB90B8E83B13A4AA8
:101C0000342303FB00231D7C597C93F8304093F868
:101C100031203D4801EB052102EB0422FEF764FD73
:101C2000304A1368013313602E4B18686328D0DDE7
:101C30003648FEF759FD40F2B323BB852D480FF01F
:101C400089FD2C49024607F12C000BF00FFE0128FC
:101C500042D9FEF725FDFEF767FD2D4B2D4819886B
:101C6000013189B21980FEF73FFD04F025FF2A4BB0
:101C700064221968C1F101010918196001F07F039C
:101C80005A432648C909D209FEF72EFD2448FEF71B
:101C90002BFD40F2C323BB8516480FF05BFD1549B1
:101CA000024607F12C000BF0E1FD012814D94FF496
:101CB0003173BB851B4B1C6820460FF04BFD214642
:101CC000024607F12C000BF0D1FD012804D94FF09A
:101CD0000003BB85032000E00020BDE8F081C04682
:101CE000F6372100180C0020144A00200938210082
:101CF000153821006C4400201B38210032382100A7
:101D0000085F00208938210090382100A038210088
:101D1000EC3C0020D7352100300C0020FC352100A0
:101D2000B6232100781F21002DE9F041064604F07A
:101D3000C3FE994B1860B28D40F29B339A4200F07B
:101D4000128117D83C3B9A424CD006D8002A32D098
:101D5000043B9A4240F0C88230E040F267339A4236
:101D600068D01E339A4200F0C180243B9A4240F072
:101D7000BB8243E0B2F57A7F00F002820DD840F2D8
:101D8000B9339A4200F08A81B2F5777F00F0C481BE
:101D9000B2F56D7F40F0A88261E140F212439A42B1
:101DA00000F0878201339A4200F091821D3B9A42F3
:101DB00040F09A824FE240F25B32B285774B1C686A
:101DC00020460FF0C7FC2146024606F12C000BF01E
:101DD0004DFD012840F28D82714B1B685BB140F2D2
:101DE0005F33B3853C2206F12C006E490BF03EFDBB
:101DF000012840F27E8240F26132B2856A4B1C6853
:101E000020460FF0A7FC2146024606F12C000BF0FD
:101E10002DFD012840F26D82FEF742FC6348FEF77B
:101E20007BFC6348FEF760FC6248FEF75DFC40F215
:101E30006733B38560480FF08DFC5F49024606F1B9
:101E40002C000BF013FD012840F25382FEF728FC12
:101E50005A4B00221A605BE02C2707FB03F2584C18
:101E6000A3181B7E002B4FD0A0181A30FEF7ACFE33
:101E70002B6807FB034393F82A0008B9542103E0B9
:101E800001280CBF50213F214E48FEF72DFC4B4B43
:101E90004B4A1B682C2101FB032393F82B100329C9
:101EA00001D14A3107E0022901D1423103E0012981
:101EB0000CBF41213F214348FEF716FC3F4B4049F0
:101EC0001A682C2303FB02F00B1893F82C303BB953
:101ED0003030081806F00CFD01463B48FEF704FCC4
:101EE0003A48FEF701FC40F28532B28532480FF0E5
:101EF00031FC3149024606F12C000BF0B7FC0128F9
:101F000040F2F781FEF7CCFB2C4A136801331360D3
:101F10002A4D2B68052B9FDD2D48FEF7E5FB00239E
:101F20002B6019E02B4C5B01E018E35C83B10230BD
:101F3000FEF74AFE2848FEF7D7FB2B6804EB431355
:101F4000DB7C13B12548FEF7CFFB2048FEF7CCFB26
:101F50001A4A136801331360184D2B68022BE1DD18
:101F600040F29B33B38514480FF0F4FB124902464C
:101F700006F12C000BF07AFC012840F2BA81FEF742
:101F80008FFB1748FEF7B0FB164B186806F0D0FF22
:101F9000154B186078E0C046040C0020801F21001B
:101FA0000C0C0020B63821007C1F2100F3382100E2
:101FB00086232100FB3821006C440020340C0020D3
:101FC00068670020193921001D3921008A3E21004F
:101FD00023392100406900204B222100054D2100BA
:101FE00040392100C40100201C0C0020734BB3F8C1
:101FF000583013F0010F08D17148FEF775FB2068C7
:10200000FEF7E2FD6F48FEF76FFB6F4C2068FEF7AE
:10201000DBFD6E48FEF768FB206809F0E1FEFEF785
:10202000BFFD6A48FEF760FB236893F82230042B5B
:102030000FD8DFE803F0030507090B00644806E04A
:10204000644804E0644802E0644800E06448FEF745
:102050004BFB6448FEF748FB4FF46D73B385624851
:102060000FF078FB6049024606F12C000BF0FEFBF6
:10207000012840F23E81FEF713FB534C5B4B216875
:10208000186806F03BFF20604F4C2368002BADD151
:102090005748FEF729FB40F2B932B28552480FF09B
:1020A00059FB5149024606F12C000BF0DFFB0128D9
:1020B00040F21F81FEF7F4FA09F076FF4D4B002243
:1020C00018604D4B1A603EE03C4BB3F8583013F0AB
:1020D000010F09D14948FEF707FB20680830FEF7D9
:1020E00073FD3848FEF700FB424C20680830FEF7CD
:1020F0006BFD2368424893F82410FEF7F5FA206838
:102100000AF054F8FEF760FD23683E489969FEF72F
:10211000EBFA4FF47773B38533480FF01BFB32496A
:10212000024606F12C000BF0A1FB012840F2E180F1
:10213000304CFEF7B5FA206809F03EFF2E4A2060C9
:102140001368013313602B4C2368002BBCD12E483D
:10215000FEF7CAFA09F020FF24E0201DFEF734FD47
:102160002868037F33B9143006F0C2FB01462748C4
:10217000FEF7BAFA1B48FEF7B7FA4FF47A72B28547
:1021800019480FF0E7FA1849024606F12C000BF047
:102190006DFB012840F2AD80FEF782FA154B1868FE
:1021A00006F0BAFC1A4B1A4D18602C68002CD4D1DA
:1021B0001848FEF799FA104B1C6045E07C5E002041
:1021C0005E392100703921001C0C00204B222100B7
:1021D0007C3921008739210091392100973921006C
:1021E0009D3921008A3E21006C440020C40100205A
:1021F000A7392100080C0020340C0020C23921002E
:10220000D6392100DF392100E73921001D392100AD
:10221000000C00200B3A210018256B43364CE018C7
:10222000E35C6BB10230FEF7CFFC3B68334805FB43
:10223000034303F1100291785B69D278FEF754FAF8
:102240002F4A1368013313602D4F3B68002BE3DDE9
:1022500040F2F633B3852B480FF07CFA2949024649
:1022600006F12C000BF002FB012842D9FEF718FA08
:10227000FEF75AFA244B25481988013189B2198092
:10228000FEF732FA04F018FC214B64221968C1F100
:1022900001010918196001F07F035A431D48D20952
:1022A000C909FEF721FA1C48FEF71EFA40F2124255
:1022B000B28514480FF04EFA1249024606F12C007E
:1022C0000BF0D4FA012814D940F21343B385134B11
:1022D0001C6820460FF03EFA2146024606F12C000B
:1022E0000BF0C4FA012804D94FF00002B285032094
:1022F00000E00020BDE8F081645E00202A3A210061
:10230000340C00206C440020D43C0020D735210040
:10231000040C0020FC352100B6232100781F210089
:102320002DE9F047074604F0C7FB544B1860BA8DFF
:1023300040F2F5239A4200F0DE8012D8173B9A4211
:102340003CD005D832B3013B9A4240F0858224E06C
:1023500040F2E3239A424AD008339A4240F07C820A
:1023600066E040F22E339A4200F02D8208D82B3BD3
:102370009A4200F03181B2F5477F40F06D82A2E1D0
:10238000B2F5507F00F04D8240F241339A4240F066
:10239000638254E240F2DD23BB85394B1C68204642
:1023A0000FF0D8F92146024607F12C000BF05EFA37
:1023B000012840F2568240F2DE23BB85314B1C6877
:1023C00020460FF0C7F92146024607F12C000BF01A
:1023D0004DFA012840F24582FEF762F92A48FEF7DD
:1023E0009BF92A48FEF780F940F2E323BB85284891
:1023F0000FF0B0F92649024607F12C000BF036FA2F
:10240000012840F22E82FEF74BF92248FEF76CF9C4
:10241000214B224893F87920B3F87C3002FB03F17A
:10242000FEF762F91E48FEF75FF940F2EB23BB8529
:1024300017480FF08FF91649024607F12C000BF0F0
:1024400015FA012840F20D82FEF72AF9154B0022F9
:102450001A6053E1144A4FF4867303FB012303F11E
:1024600090025379002B00F0458111790F48FEF757
:102470003BF90F4B00221A6037E1C046280C0020C0
:10248000801F21007C1F2100383A21008623210073
:102490006C4400203C3A21007C5E0020533A21002D
:1024A00041352100100C0020D8690020733A21002A
:1024B0003C0C0020A14D8B012A6820334FF4867418
:1024C00004FB0232DFF8848242445379002B00F08F
:1024D00008819B48FEF708F99A48FEF705F933682A
:1024E00028689B01103304FB00304044FEF76CFB6E
:1024F00040F2F523BB8594480FF02CF9924902462F
:1025000007F12C000BF0B2F9012840F2AA81DFF8A4
:1025100080828A4EFEF7C4F8D8F8003032689B01FA
:102520004FF48674203304FB0232884D8848AA1881
:102530009178FEF7D9F8D8F8003032689B01203343
:1025400004FB0232AA18D178DFF834A2DFF8349203
:102550008048002914BF51464946FEF7C5F8D8F80F
:10256000003032689B01203304FB0232AA18117933
:102570007948FEF7B9F83368784804FB035393F8B9
:102580009710FEF7B1F83368754804FB03539B6856
:10259000198BFEF7A9F8D8F8003032689B01203378
:1025A00004FB0232AA1891796E48002914BF5146E3
:1025B0004946FEF799F83368D8F800205C4304EBED
:1025C00082142D196848A98DFEF78EF86748FEF72A
:1025D0008BF840F20333BB855B480FF0BBF85A49D8
:1025E000024607F12C000BF041F9012840F2398135
:1025F000DFF84881FEF754F8544DD8F800304FF416
:10260000867606FB035303F1980493F898206178CB
:10261000237952185648FEF767F8D8F8003006FBC1
:1026200003F2AB1893F89D30EBB1A818B03005F069
:10263000F3FE044604F040FA241AE1094D48FEF77F
:1026400053F8D8F8000006FB0050B03005F0E4FE67
:10265000D8F80030044606FB0353D3F8A85004F022
:102660002BFA64190CE04448FEF73EF8D8F8000055
:1026700006FB0050B03005F0CFFE044604F01CFA13
:10268000241AE1093D48FEF72FF82C4B2F4A1B680E
:102690004FF4867101FB032398339C7854B19A79E7
:1026A0003749384B3848A24238BF19462346FEF70F
:1026B0001BF802E03548FEF717F82C48FEF714F82F
:1026C0004FF44773BB8520480FF044F81E4902467B
:1026D00007F12C000BF0CAF8012840F2C280FDF788
:1026E000DFFF2B4A136801331360294E316801293B
:1026F0007FF7E0AE114A1368013313600F4B19687E
:1027000000297FF7A7AE234BB3F8583013F0010F21
:1027100050D12148FDF7E8FF2048FDF7E5FF2048AC
:10272000FDF7E2FF1F48FDF7DFFF1F48FDF7DCFF65
:102730001E48FDF7D9FF1E4840E0C046100C00209F
:10274000883A21009A3A21006C440020D869002080
:10275000A63A2100C03A2100D43A2100EA3A2100E9
:10276000073B2100303B2100423B21004135210045
:10277000523B21007A3B2100A73B21008E3B2100E8
:10278000BC3A2100B93A2100BA3B2100E03B2100CC
:102790003C0C00207C5E0020013C2100183C210004
:1027A0003C3C21007E3C2100A53C2100E13C210075
:1027B000083D21002C48FDF797FF2C48FDF794FFBA
:1027C00040F22E33BB852A480EF0C4FF284902464A
:1027D00007F12C000BF04AF8012842D9FDF760FF01
:1027E000FDF7A2FF234B24481988013189B21980D3
:1027F000FDF77AFF04F060F9204B64221968C1F1FB
:1028000001010918196001F07F035A431C48C909E6
:10281000D209FDF769FF1B48FDF766FF4FF45073BF
:10282000BB8513480EF096FF1149024607F12C00B4
:102830000BF01CF8012814D940F24133BB85124B30
:102840001C6820460EF086FF2146024607F12C0048
:102850000BF00CF8012804D94FF00003BB850320CE
:1028600000E00020BDE8F087013C2100463D21004A
:102870006C440020E83C0020D7352100280C0020C3
:10288000FC352100B6232100781F210070B50646D3
:1028900004F012F99F4B1860B28D40F2B3139A42C4
:1028A00070D007D8B2F5C87F1CD0223B9A422AD0FC
:1028B000AAB128E1B2F5EA7F00F0DC8005D840F249
:1028C000C5139A4240F01F819CE040F2F3139A42F4
:1028D00000F0FE80B2F5FA7F40F0158106E14FF47A
:1028E000C873B3858C4B1C6820460EF033FF21461D
:1028F000024606F12C000AF0B9FF012840F20881D7
:1029000040F29113B385854B1C6820460EF022FFE0
:102910002146024606F12C000AF0A8FF012840F2E9
:10292000F780FDF7BDFE7E48FDF7F6FE7D48FDF71A
:10293000DBFE7D48FDF7D8FE7C48FDF7D5FE7C48E0
:10294000FDF7D2FE7B48FDF7CFFE7B48FDF7CCFEBE
:1029500004F0BCF8794B4FF461611B68C51A784BE1
:1029600078481D603C2395FBF3F494FBF3F203FBE2
:10297000124295FBF1F103FB1453FDF7B5FE40F253
:10298000B313B38570480EF0E5FE6F49024606F1B9
:102990002C000AF06BFF012840F2BA80FDF780FEA0
:1029A0006A48FDF7A1FE6A4BDC691D68A04708B9BB
:1029B000044603E0A047802393FBF0F4654B2A46CE
:1029C000196865482346654CFDF78EFE6448FDF79F
:1029D0008BFE20682430FEF7F7F82368614893F8EF
:1029E0003810FDF781FE6048FDF77EFE5F48FDF779
:1029F0007BFE5F48FEF7D4F85B48FDF775FE40F2BA
:102A0000C513B38550480EF0A5FE4F49024606F1A6
:102A10002C000AF02BFF01287AD9FDF741FE55481A
:102A2000FDF762FE5448FDF75FFE5448FEF7CCF810
:102A30004D48FDF759FE5248FDF756FE5148FEF746
:102A4000C3F84948FDF750FE4848FDF74DFE002405
:102A500002E04D48FDF748FE4C4B4D48195D0134EE
:102A6000FDF742FE062CF4D13F48FDF73DFE4FF442
:102A7000EA73B38534480EF06DFE3349024606F121
:102A80002C000AF0F3FE012842D9FDF709FEFDF7FC
:102A90004BFE404B40481988013189B21980FDF73F
:102AA00023FE04F009F81B4B64221968C1F10101EF
:102AB0000918196001F07F035A433848C909D2093F
:102AC000FDF712FE3648FDF70FFE40F2F313B38513
:102AD0001D480EF03FFE1C49024606F12C000AF08C
:102AE000C5FE012814D94FF4FA73B3852D4B1C6829
:102AF00020460EF02FFE2146024606F12C000AF079
:102B0000B5FE012804D94FF00003B385032000E08F
:102B1000002070BD140C0020801F21007C1F2100AC
:102B2000553D2100862321005A3D2100683D2100AA
:102B30008C3D210097222100943D2100E84900208E
:102B4000240C00209C3D21006C440020B73D210056
:102B5000B421210090212100CA3D2100FC49002020
:102B60007E272100ED3D210041352100F13D21006E
:102B7000085F0020FF3D2100173E2100B6490020DC
:102B8000223E2100004A00205725210080490020D4
:102B900059252100E63C0020D7352100FC352100D5
:102BA000B6232100781F21002DE9F043054685B0AA
:102BB00000274FF001081AE328463D210EF0E8FBFC
:102BC000002800F018830446002604F8016B204614
:102BD00026210EF0DDFB18B1814609F8016B04E0F7
:102BE00020460EF0B7FD04EB0009844804F02AFFEC
:102BF00029462246824804F025FF284681490EF0E6
:102C00005FFD0646D8B920467F490EF059FD20B930
:102C10007E4A137D03F07F0320E020467C490EF0BE
:102C20004FFD30B9794A137D6FEA43636FEA53630E
:102C300014E0784804F006FF774872495CE22846C1
:102C400076490EF03DFD0646E0B920466E490EF08D
:102C500037FD38B96D4A137D23F00403137547F02F
:102C60000107C3E220466A490EF02AFD20B9674AEF
:102C7000137D43F00403F1E7664804F0E3FE664881
:102C8000664939E2284666490EF01AFD30B92046F9
:102C90000EF078FB5D4B83F85600E0E7284661496B
:102CA0000EF00EFD70B9204669460BF0D9F86E465D
:102CB000044608B15C483EE0564804F0C3FE56485E
:102CC0005849DAE0284659490EF0FAFC30B9204656
:102CD0000EF058FB4D4B83F85A00C0E72846544984
:102CE0000EF0EEFC0646C8B9204647490EF0E8FC57
:102CF00020B9464A137D23F01003AFE7204644492C
:102D00000EF0DEFC20B9414A137D43F01003A5E725
:102D1000404804F097FE40484549EDE128464549C2
:102D20000EF0CEFC90B9204669460BF099F86E463D
:102D3000044628B14048694610220EF09DFB8EE7FC
:102D4000344804F07FFE34483A4996E028463B492F
:102D50000EF0B6FC70B9204669460BF081F86E465D
:102D6000044608B13648E6E72A4804F06BFE2A48D4
:102D7000324982E0284633490EF0A2FC30B92046A1
:102D80000EF000FB214B83F85B0068E728462E49D4
:102D90000EF096FCC8B920461B490EF091FC20B9F4
:102DA0001A4A137D23F0200358E7204618490EF0F5
:102DB00087FC20B9154A137D43F020034EE71548E0
:102DC00004F040FE14482049ECE028461F490EF06C
:102DD00077FC00283ED1204669460BF041F86E464C
:102DE000044628B11A4C96E80F0084E80F0036E735
:102DF000084804F027FE084814493EE0333E21000D
:102E00003F3E2100573E21001C4821007C5E0020EF
:102E1000C14A2100633E21006F3E21008C3E21000B
:102E2000943E21009C3E2100925E0020A43E2100A1
:102E3000B03E2100B93E2100A25E0020C23E21002A
:102E4000B25E0020CA3E2100D63E2100DF3E2100B6
:102E5000805E002028468C490EF032FC90B9204656
:102E600069460AF0FDFF6E46044608B1874862E7EE
:102E7000874804F0E7FD874883492A4604F0E2FDCD
:102E8000A046B3E1284684490EF01AFC0646C8B9AC
:102E9000204682490EF014FC20B9814A137D23F0AC
:102EA0000803DBE620467F490EF00AFC20B97C4A85
:102EB000137D43F00803D1E6754804F0C3FD75485F
:102EC000754919E1284678490EF0FAFB0646C8B95B
:102ED000204672490EF0F4FB20B9714A137D23F0AD
:102EE0000103BBE620466F490EF0EAFB20B96C4AAD
:102EF000137D43F00103B1E6654804F0A3FD654886
:102F00006949F9E0284669490EF0DAFB30B92046F4
:102F10000EF038FA624BA3F85E00A0E6284664493A
:102F20000EF0CEFB30B920460EF02CFA5C4BA3F825
:102F3000600094E628465F490EF0C2FB30B9204697
:102F40000EF020FA564BA3F8620088E628465A494C
:102F50000EF0B6FB30B920460EF014FA504BA3F831
:102F600064007CE6284655490EF0AAFBF0B92046DD
:102F70004A490EF0A5FB28B9494AB2F8663023F455
:102F8000807322E0204647490EF09AFB28B9444A54
:102F9000B2F8663043F4807317E03D4804F052FD08
:102FA0003C4846492A4604F04DFD1DE12846444967
:102FB0000EF086FBE8B9204638490EF081FB38B99F
:102FC000374AB2F8663023F08003A2F8663046E64E
:102FD000204634490EF074FB28B9314AB2F8663005
:102FE00043F08003F1E72A4804F02CFD29483449D6
:102FF000D8E7284633490EF063FB0646D8B9204689
:1030000026490EF05DFB28B9254AB2F8663023F058
:103010004003DAE7204623490EF052FB28B9204A44
:10302000B2F8663043F04003CFE7194804F00AFDD8
:103030001848244960E0284623490EF041FB28B98E
:1030400020460EF09FF9164B986608E628461F4961
:103050000EF036FB28B920460EF094F9104BD866D6
:10306000FDE528461A490EF02BFB0646002848D1FC
:1030700020460A490EF024FB60BB094AB2F87030C2
:1030800023F4807330E0C046E83E2100C25E002099
:10309000633E21006F3E2100F03E21001C482100CC
:1030A0007C5E0020C14A2100FA3E2100023F21003F
:1030B0000E3F21001E3F21002E3F21003B3F2100FB
:1030C000423F21004E3F21005A3F21006A3F21002C
:1030D0007A3F210020464E490EF0F2FA38B94D4AA7
:1030E000B2F8703043F48073A2F87030B7E54A4804
:1030F00004F0A8FC49484A492A4604F0A3FCB0461B
:1031000074E0284647490EF0DBFA30B920460EF04D
:1031100039F9404BA3F87200A1E5284642490EF068
:10312000CFFA30B920460EF02DF93A4B83F87400EF
:1031300095E528463D490EF0C3FA30B920460EF019
:1031400021F9344B83F8750089E5284638490EF09B
:10315000B7FA30B920460EF015F92E4B83F87600F9
:103160007DE5284633490EF0ABFA30B920460EF023
:1031700009F9284B83F8770071E528462E490EF0AF
:103180009FFA30B920460EF0FDF8224B83F8780004
:1031900065E5284629490EF093FA30B920460EF02D
:1031A000F1F81C4B83F8790059E5284624490EF0C4
:1031B00087FA30B920460EF0E5F8164BA3F87A00EE
:1031C0004DE528461F490EF07BFA30B920460EF037
:1031D000D9F8104BA3F87C0041E50F4804F032FC0D
:1031E0001948294604F02EFC4FF000084D462B7874
:1031F000002B7FF4E1ACB8F1000F01D001F0FCF836
:10320000D7F1010038BF002005B0BDE8F083C0460B
:10321000C14A21007C5E0020633E21006F3E2100F8
:103220007A3F2100843F2100943F2100A43F2100E8
:10323000B33F2100C43F2100D33F2100E63F2100DE
:10324000FB3F21000E402100204021007FB5704B44
:103250000022704E1A6070490446B6F858500EF0BD
:103260002FFA002800F0CF802378002B00F0CB80CD
:1032700020466A490EF024FA08B96948C6E020469B
:1032800068490EF01DFA08B96748BFE02046674953
:103290000EF016FA002800F0B880204664490EF0BF
:1032A0000FFA00287ED0204662490EF009FA08B9CC
:1032B0006148ABE015F0010F40F0888020465F497F
:1032C00006220EF061FA20B996F874000AF0F8FFB1
:1032D00097E020465A4909220EF056FA38B94D4B6C
:1032E00093F874000AF0CCFF0CF0AAFD89E02046A8
:1032F000544909220EF048FAB8B940F2FF22ADF85D
:103300000200ADF80400ADF80600ADF80800ADF815
:103310000A00ADF80C004FF4D0536846ADF8002019
:10332000ADF80E300CF076F96BE0204646490822E5
:103330000EF072F898B9364B01221A6004F10900B8
:1033400042490AF08DFD00285FD0404808F0F6FEA3
:103350003F4B1860002858D008F036FF55E0204653
:103360003C4906220EF058F890B9294B01221A6008
:10337000E01D36490AF074FD002846D0334808F0B5
:1033800013FD354B186000283FD008F03BFD3CE0B2
:103390002046324907220EF03FF828B9E01DFFF71A
:1033A00003FCC8B12E4831E020462E490EF088F9C2
:1033B00008B92D482AE020462C490C220EF02CF8A2
:1033C00020B91448012101F01BF805E020462849E6
:1033D00007220EF021F808B9012210E02046254905
:1033E00006220EF019F808B9022208E02046224908
:1033F00004220EF011F808B1204807E00322204B08
:103400001A70204802E0204800E0204804B070BD57
:103410000C0C00207C5E002038402100434021003D
:103420005D18200050402100212320005940210038
:103430006640210072402100E10920008240210005
:1034400089402100934021009D402100D63C00206E
:10345000400C0020A6402100200C0020AD4021009F
:10346000C50D2000B540210031082000C0402100DA
:10347000CD402100D5402100DC402100390720004B
:10348000104A0020250C20008D282000291D200036
:1034900010B54FF4A0400AF08FFC024805F08CFBF9
:1034A00010BDC0466000002070B5838D04469C2B83
:1034B0000D4605D0AF2B11D0C3B94FF09C038385C7
:1034C00028460EF047F92946024604F12C000AF07E
:1034D000CDF901280FD94FF0AF03A3851B2204F1CA
:1034E0002C0006490AF0C2F9012804D94FF0000364
:1034F000A385032000E0002070BDC046E645210002
:1035000070B503890446D82B0BD001D833B185E0C0
:10351000DD2B17D0F32B40F0818077E04FF0D803FC
:103520000381202104F108000AF038F9012878D934
:1035300004F15200744904220EF026F970B94FF0DC
:10354000DD03238104F10805202128460AF026F92D
:10355000012866D994F852302F2B03D06B4B1022E0
:103560001A705BE028460AF0FFF804F58A6E20180E
:1035700000230EF1020E80F85130754604F152001E
:1035800010F8012B2E46232A27D0252A26D110F801
:10359000013B43F0200383F03001A1F15103DBB282
:1035A000052B03D8A1F14703D9B201E0092914D8AA
:1035B00010F8013B43F0200383F03002A2F15103E5
:1035C000DBB2052B03D8A2F14703DAB201E0092AE6
:1035D00004D842EA0113DAB200E00022A2F120038B
:1035E000DBB25E2B88BF00220EF5787306339D4256
:1035F00004D0013512B105F8012CC1E70023337066
:10360000013384F840384FF0F30323810A2104F199
:1036100008000AF0C3F80128F5D802E04FF00003D3
:10362000238194F84038012B6DD1B4F85030C22B6F
:1036300032D003D83BB1C12B61D123E0C72B48D096
:10364000C82B5CD14FE004F58A65C4F83C3830489B
:10365000023504F0F7F929462E4804F0F3F904F591
:103660008A600330FFF7F2FDC4F83C0800282CD133
:10367000284629494FF47A720EF0CAF84FF0C10378
:10368000A4F8503020462549FFF70EFF01283AD90B
:103690004FF0C203A4F85030214B1D68A38D13B125
:1036A0008F2B0ED102E04FF08F03A38528460EF03A
:1036B00051F82946024604F12C000AF0D7F80128F7
:1036C00021D94FF00003A38516E04FF0C703A4F8FB
:1036D000503020461349FFF7E7FE012813D94FF079
:1036E000C803A4F85030D4F83C3820469847012845
:1036F00009D90023C4F83C38044B10221A704FF04B
:103700000003A4F8503070BD024621001064002070
:1037100064452100714521007E452100B14421000E
:10372000841F21000E4521002DE9F0412B4F044656
:103730003B7813F0300602D113F0800F09D0002C33
:103740004AD00023C4F83C382146254805F0FEF94C
:1037500042E013F0400527D0214805F0E1F9054685
:10376000002837D01F4B2946186805F152040AF08B
:10377000F7F805F10800214640F2FF320AF066F83A
:1037800005F12C00214640F2FF320AF05FF828468E
:10379000A5F85060C5F83C6885F840684FF4A06112
:1037A00005F0E6F8284612E0A0B113F0080F0BD0A0
:1037B00005F0CAF850B120233B702146C4F83C58AC
:1037C000074805F0C3F901E005F0CCF82046FFF703
:1037D00097FE01E020233B70BDE8F08110640020DB
:1037E0006000002020640020F0B504889FB00746E8
:1037F00014B15D2C4BD114E0284804F023F928487B
:1038000004F0C0F82046214622460AF0C7FA254BAC
:1038100018604BF60B0303824FF05D033B800120E1
:1038200039E0214B1B788B42F6D1204B1B7813F0EB
:10383000020FF1D01E4A1F4B002619881368194D3C
:103840005E5411681C4800F089F92C681A4920461A
:1038500010220DF011FE194B19491B88684663822E
:10386000184B6C461A6801321A6004F037F9684642
:103870000DF070FF6946024628680AF05BFB286875
:10388000314610220DF0A4FE2B685E82C4E74FF093
:103890000003038003201FB0F0BDC046074621008F
:1038A000144621008C1400205B6C00201064002062
:1038B0001C640020FC5E0020185F0020385F0020A0
:1038C00027462100881400202DE9F0410025884674
:1038D00004462E4608EB050318F805205B7803EB39
:1038E00002239FB257B9002E0DDB06F1010616D157
:1038F00020460E490DF00CFF023410E0002E02DDD0
:103900004FF0FF3605E025B1204609490DF000FFD4
:103910000134204607493A4604F0E0F824180235FD
:10392000102DD7D12046BDE8F081C0465625210094
:103930005725210056462100F0B50C4601888BB072
:10394000074619B1E62940F0978010E010224D4853
:103950000DF03EFE4C4A012313704C4B4C48196845
:1039600004F02AFE4FF0E6033B80012088E048483F
:1039700004F04CFD00286CD0464B1B783BB1464B05
:10398000464910223F481D880DF076FD17E00120C2
:1039900007F0B2FE04460028DFD00AF065FC0546B9
:1039A0000028DAD0A11C102236480DF065FD05F183
:1039B00008013B4808220DF05FFD40F6B835394E4E
:1039C000346834B9290A41EA05212E4889B22246D1
:1039D0000EE020462B4910220DF01EFD58B1290A99
:1039E0004FF0000341EA05212648238289B20022D4
:1039F0000AF0D4F930602B4B1B68002BADD0224B62
:103A00001B78002BA9D0284B68461A682749013239
:103A10001A6004F063F86D4604460AF025FC40B1D4
:103A2000036AD3F8901021B128190431FFF74CFF35
:103A300004E0684600191E490DF06AFE68460DF064
:103A400089FE184B0246694618686C460AF072FAFD
:103A500083E7184B1B78A34284D1174B1B7813F0D4
:103A6000020F3FF47FAF154B1968154B1B88C854E4
:103A7000144803F0E7FF75E74FF0000303800320CD
:103A80000BB0F0BDF46A00206E4600208C000020D0
:103A9000901400206D460020D4030020E46A00202A
:103AA000FC6A0020A0140020A41400205B46210022
:103AB000614621005B6C0020106400201C64002023
:103AC000FC5E0020684621001FB58022009203AAF8
:103AD0000346019205486421342207F057FF08B1DC
:103AE000002000E0039805B000BDC046144A002045
:103AF00010B5FFF7E9FF08B10023037010BDC04601
:103B000010B5FFF7E1FF044610B102F0D5FF606188
:103B100010BDC0467FB5002604AB43F8046D80227B
:103B2000054600920193642134220B482B4607F08E
:103B30002DFF012804460CD13146342203980DF0A4
:103B400047FD039B29461C700398102202300DF09C
:103B500093FC039804B070BD144A00202DE9F04195
:103B600005460F46FFF7B0FF044628B92846FFF781
:103B7000D1FF0446002837D002F09EFF606102F0BA
:103B80009BFFA369E0610133A36138467C210DF0FE
:103B9000FFFB0646E8B1C31B002B1ADD05460023D8
:103BA00005F8013B38460DF0EDFB20847378202B9F
:103BB00008BF013528467C210DF0EAFB08B100233F
:103BC0000370284604F122010AF04AF9034658B965
:103BD00002E04FF0000323846384A384E3842385FD
:103BE0006385A385E38523862046BDE8F081C04632
:103BF000022870B50C460DD10846FFF765FF054653
:103C000020B92046FFF786FF054640B102F054FF79
:103C1000686104E0032802D10846FFF769FF70BD20
:103C2000002110B541F2504203480DF0D1FC034889
:103C3000034908F0AFFA10BD144A0020A814002070
:103C4000F13B200010B5038804460BB902F04AFC92
:103C50004FF000032380032010BDC0461FB5C47879
:103C60000178427883780094047901944079029035
:103C7000014803F0E7FE1FBDC74621002DE9F341CF
:103C80000546144C00910E4617460121182298460D
:103C900011482B46019407F079FE012810D12368C2
:103CA000294618702068102202300DF0E5FB2368C9
:103CB0009E742368DF742368C3F81480206806E0CC
:103CC000064803F0BFFE064803F05CFE0020BDE896
:103CD000FC81C046B0140020645E00201147210022
:103CE0005747210010B509F021FE064B1860064821
:103CF00009F016FE09F02EFE044B1860044809F086
:103D000023FE10BDB8140020013E2000B414002092
:103D10003D3D200010B5064B1B680BB1984705E0F0
:103D2000044803F08FFE044803F02CFE10BDC0468B
:103D3000B41400207F4721008A47210010B51920C4
:103D400005F03EFA68B1192005F03AFA084904F086
:103D5000CFFF30B9193005F033FA064904F0C8FF37
:103D600010B1FFF7D7FF01E0034B188010BDC0462C
:103D7000DB4C2100C6490020FC5E002013B5184B27
:103D800001911C883CB9174803F05CFE164803F00B
:103D9000F9FD204623E059B101A8144904F0A8FF19
:103DA00030B1104803F04EFE114803F0EBFD0CE07B
:103DB00010498B793A2B0AD10F4B1A7801F128035D
:103DC0009B5C7B33DBB2012B01D8002007E00B4B5F
:103DD0001B680BB9184601E001989847C0B21CBD9A
:103DE000FC5E0020A0472100AC472100C64900200E
:103DF000C9472100105F0020F6470020B8140020BA
:103E000037B5514B04461B8823B9504803F01AFEBE
:103E10004F4843E038B14F4904F06AFF20464D490E
:103E200004F066FFD8B14C4A93793A2B0FD14B4B33
:103E3000197802F128035B5C862B16D0872B06D1FC
:103E400051184748303108220DF0E6FA68B144486D
:103E5000444908220DF0E0FA38B1002C6ED0E37826
:103E6000FF2B6BD12379FF2B68D101941CB1204625
:103E7000384904F03DFF344B1B8823B9334803F025
:103E8000E1FD39480AE0019B5BB101A8374904F024
:103E90002FFF30B12D4803F0D5FD354803F072FDFA
:103EA00050E02D4DAB793A2B06D12C4B1A7805F109
:103EB00028039B5C9B2B45D02E4B1B7D13F0010FE1
:103EC0000FD0284C2378FE2B0BD16378802B08D1A0
:103ED000204607F0E3FD20B12046274910220DF0CF
:103EE000CBFA012000F07AFA0BF0A2F848F2DD607C
:103EF00006F024FB214CA081019818B1154904F06B
:103F0000F7FE78B133232370637095F82430A370E3
:103F100095F82530E37095F82630237195F8273011
:103F2000637103E02046019900F00EF9144906225E
:103F300014480DF0A1FA00F0CFFE03E00020214666
:103F4000FFF71CFF00203EBDFC5E0020A0472100C3
:103F5000EA472100DB4C2100105F0020F6470020DB
:103F6000CE490020185F002006482100DF490020CC
:103F70001E4821007C5E0020004A0020346C002096
:103F8000804900203A6C002037B534484DF68653FE
:103F90008289334C9A4203D04FF0000222805BE0CA
:103FA000304B1A795B7903EB0221228801F1280357
:103FB000934207DB01F12703934203DB4FF0000339
:103FC000238049E00378332B08D14378332B1BD16E
:103FD0006846254904F096FE012525E0FF2B13D104
:103FE0004378FF2B10D18378FF2B0DD1C378FF2BA3
:103FF0000AD10379FF2B07D14379FF2B04D1184B4A
:104000004FF000021A8027E01448694600F05AF881
:10401000044640B9154803F015FD154803F0B2FCFD
:104020000F4B1C8018E00025002000F0D7F9C4B227
:1040300034B10E4803F006FD0E48214603F002FDA0
:104040000D48064906220DF0E7F900B115B1FFF75A
:1040500061FE01E0024B1D803EBDC046346C002075
:10406000FC5E0020105F0020DB4C21007F47210018
:104070003F482100654821008049002010B5844652
:104080001446084691B18AB10021431ED8B2002CD3
:10409000CBBF1CF800301CF801300CEB00020CEB1D
:1040A0000102135510B14B1CD9B2EEE710BDC0464A
:1040B00010B5034906220DF0DFF9012010BDC046FE
:1040C0008049002070B505460C461B48294606224B
:1040D0000DF0A2F928B92046184908220DF0CCF9B4
:1040E00028E0287800F00703062B14D1C00803232A
:1040F0004343134AD118D35C23704B7863708B7899
:10410000A3706B78E370AB7823710E4B1B788342FE
:104110000AD800200FE020706B786370AB78A37032
:104120004FF0FF33E3702371EB7863712B79A37148
:104130006B79E371012070BD80490020085F002089
:10414000546B00206F46002070B53C4B05461B6841
:104150000C4653B13A4808220DF05EF928B92846BA
:10416000384906220DF088F966E0E378FF2B05D088
:10417000354B364918784FF0000C24E02379FF2B9B
:10418000F6D1237803F00703062B05D1304803F05E
:1041900059FC304803F0F6FB23782B7063786B7082
:1041A000A37842E022780B789A4207D162784B7864
:1041B0009A4203D1A2788B789A4206D00CF101037F
:1041C0005FFA83FC03318445ECD3BCF11F0F13D994
:1041D000214803F037FC214803F0D4FB237800206A
:1041E0002B7063786B70A378AB706379EB70A379F5
:1041F0002B71E3796B7120E084450ED1124B0CF1E9
:1042000001021A70032303FB0CF322780F49CA54EE
:10421000C81863784370A37883704FEACC0343F0E7
:1042200006032B70E3786B702379AB706379EB70C6
:10423000A3792B71E3796B71012070BDEC0B002029
:10424000085F0020804900206F460020546B00204A
:104250008A48210096482100BF482100CC4821000F
:104260002DE9FF47DFF86C81814698F8283098F8EF
:104270000510842B98F8042008F1280A0AD8832B0B
:1042800080F09E80A3B1042B40F29A80803B012BEA
:104290000ED895E0882B06D8872B11D2852B09D014
:1042A000862B05D108E0892B08D09B2B00F0888055
:1042B000FF2086E0082604E0102602E0282600E021
:1042C000182641EA02239B1B9FB276E0414B06F180
:1042D00028029D189B5C6A78013BDBB2012B61D8F8
:1042E0006FF003035343DB435800002107E004ABA6
:1042F0005A186B189B7802F8103C4B1CD9B28142BB
:10430000F5DBB9F1000F0ED1B91F05F10800C9B2F4
:104310000822FFF7B3FE6846A91CFFF7D3FE02236D
:104320006B70082418E0B9F1010F01D0FD2048E0BE
:10433000A7F10E0105F11000C9B26FF00702AC1C25
:10434000FFF79CFE20466946FFF7FEFE00283CD1A1
:104350002046FFF7ADFE38E098F8042098F80530C5
:10436000A4B243EA0223E3189BB288F805301A4A44
:104370001B0A88F804301388E31813804FF00003F9
:10438000AAF8023006F014F9C043AAF802006A78CD
:104390006FF0070303FB027306EBC202E418A7B237
:1043A00096B20AE00AB9174604E06FF0070303FB70
:1043B00002739FB206EBC2039EB23BB2072B85DCB1
:1043C000002040B204B0BDE8F08701236B704FF6C7
:1043D000F874C1E7105F0020FC5E002010B5054BAB
:1043E0009B793A2B01D0002002E0FFF739FFC0B2E1
:1043F00040B210BD105F002010B500F051F910BDA3
:104400007FB505460E4679B9028842F209039A4201
:1044100004D14388012B01D80A4698E0744803F080
:1044200011FB744803F0AEFA42F209032B804FF0FF
:1044300000036B804BF6BB33ADF8003069464FF09C
:104440000003102205F13600ADF80230ADF804305B
:10445000ADF80630ADF80830ADF80A30ADF80C30E4
:10446000ADF80E300DF008F84BF6BB33ADF8003068
:104470004FF00003ADF80230ADF80430ADF806306F
:10448000ADF80830ADF80A30ADF80C3069464FF0A1
:1044900001031022281DADF80E300CF0EDFF4AF696
:1044A000AA23ADF8003069464FF00003102205F151
:1044B0001600ADF80230ADF80430ADF80630ADF8B6
:1044C0000830ADF80A30ADF80C30ADF80E300CF015
:1044D000D3FF4AF6AA23ADF800304FF00003ADF841
:1044E0000230ADF80430ADF80630ADF80830ADF864
:1044F0000A30ADF80C3069464FF00103102205F187
:104500002600ADF80E300CF0B7FF4FF0000310227C
:1045100005F146006946ADF80030ADF80230ADF85F
:104520000430ADF80630ADF80830ADF80A30ADF81B
:104530000C30ADF80E300CF09FFF6FF00F036B7571
:104540002D332B751A236C4685F8563001226B8863
:10455000002B49D12EB9284803F074FA274803F0FC
:1045600011FA4FF001036B8000224023A5F8582078
:1045700085F85A3085F85B304FF41673A5F85C2047
:10458000A5F85E20A5F860304FF0C803A5F86230AA
:104590004FF00303A5F864304FF4E073A5F86630DC
:1045A000174B1E21AB664FF46153EB664FF48073DB
:1045B000A5F870304FF4E163A5F87230082385F850
:1045C000741085F8752085F87630043385F87730D7
:1045D0000A2385F878304FF4807385F87910A5F8B0
:1045E0007A30A5F87C3000E00AB100F059F87FBDC0
:1045F000E4482100F14821003549210041492100CA
:104600008051010070B50B4D0B4C00F099F8284615
:1046100003F018FA2188094803F014FA284603F039
:1046200011FA6188064803F00DFA20460021FFF7D1
:10463000E7FE70BD614921007C5E00206D492100CC
:104640007D49210070B50F4C0F4D20460F4904F0F5
:1046500059FB21462846FFF777FD0D4803F0F2F994
:104660000C4803F0EFF92846FFF7F8FA0A2003F0A8
:1046700081F9094B01221A60084B93F8560002F0A9
:1046800043FE70BDC6490020804900204B6C0020CD
:104690008F4921009C492100EC0B00207C5E00200A
:1046A00070B504251C4803F0CDF91C4803F06AF9E5
:1046B0004823DB681A484FF400619847044630B13C
:1046C000184803F0BFF91848214603F0BBF9482306
:1046D0001B69164812498422984734B1114803F0E7
:1046E000B1F91348214603F0ADF948231B6A0F487E
:1046F0000B498022984770B10A4803F0A3F90D488E
:1047000003F040F915F1FF35CCD10B4803F09AF9CD
:104710000A4803F037F970BD61492100AF49210013
:1047200000F02700E4482100C14921007C5E002000
:10473000D4492100E7492100004A21000D4A210007
:1047400010B5064803F07EF9054803F01BF948232D
:10475000DB69044980220448984710BD6149210063
:104760002A4A210000F027007C5E002070B50D462B
:10477000044605F01F05164600F0BCFA45EA0400A1
:1047800000F0C4FA304600F0C1FA00F0B9FA70BD8A
:1047900070B5094D00F060042B789C420AD0A0202F
:1047A0001F210322FFF7E2FF80201F216209FFF78C
:1047B000DDFF2C7070BDC0467046002070B5044609
:1047C00004F01F040D46FFF7E3FF00F093FA44F0F6
:1047D000400000F09BFA284600F098FA00F090FAAA
:1047E00070BDC04670B506460D4600F083FA7A20CB
:1047F00000F08CFA00240A4B185D013400F086FAB0
:104800000E2CF8D1002403E0305D00F07FFA013473
:10481000A5F10E039C42F7DB00F072FA70BDC046B2
:10482000346C002010B50446FFF7B2FF00F062FAC6
:1048300004F01F0000F06AFA00F080FA044600F06D
:104840005FFA204610BDC046034610B5D4200C4682
:104850001946FFF7B3FFD620E1B2FFF7AFFFD7202D
:10486000210AFFF7ABFF02E00F2002F04BF9EA202C
:10487000FFF7D8FF10F0010FF6D110BD10B54C486E
:1048800003F0E0F84B4803F07DF800F071FA1D20CA
:10489000FFF7C8FF10F0010FF9D000F02BFAFF204E
:1048A00000F034FA00F02CFA434B4FF000021A806B
:1048B00008200021FFF782FF09200021FFF77EFF7B
:1048C0000C200021FFF77AFF0D200021FFF776FF73
:1048D0000A20FE21FFF772FF0B201921FFF76EFF60
:1048E0000420FF21FFF76AFF05201921FFF766FF6B
:1048F0000620FF21FFF762FF07201F21FFF75EFF61
:1049000038208321FFF75AFFC0200D21FFF756FF03
:104910000021C120FFF752FFC220FFF783FF40F0C4
:104920003301C9B2C220FFF749FFC6201221FFF7A9
:1049300045FFC7200C21FFF741FFC42012211F4C67
:10494000FFF73CFFCA20EE21FFF738FFCB200521FF
:10495000FFF734FFE4202178FFF730FF6178E5208E
:10496000FFF72CFFE220A178FFF728FFE320E17892
:10497000FFF724FFE0202179FFF720FFE120617994
:10498000FFF71CFF10204FF48071FFF75DFF04213B
:104990001F20FFF713FF0A2002F0B4F8142040F2A2
:1049A0007641FFF751FF142002F0ACF810BDC0466D
:1049B0003B4A2100474A2100EE3C0020714600207E
:1049C00010B5038804461BB1B3F5E77F1ED109E09B
:1049D00011484FF4706103F0EFFD4FF4E77323804B
:1049E000012017E00C4803F011FD08B9013011E077
:1049F0000A4B1A680A4B1B689A4201DCFFF73EFF1C
:104A0000064A00231360064A1360E1E74FF00003F3
:104A10000380032010BDC046BC140020CC1400202D
:104A2000D014002010B500F065F93A2000F06EF9BE
:104A300000F084F9044600F063F9204610BDC0463A
:104A40002DE9F041074639200E46FFF7EBFE00B98D
:104A50005BE02F4D00202978FFF7B0FE2988012068
:104A6000090AFFF7ABFEFFF7DDFF28800446FFF7DA
:104A7000D9FF44EA00242C80FFF7D4FF0446FFF757
:104A8000D1FF44EA0024FFF7CDFF043CA5B2044661
:104A9000FFF7C8FFAE4201DC731E9DB214F0800325
:104AA00001D11D4618E000F025F93A2000F02EF95A
:104AB000002400F043F9174B185501340E2CF8D19F
:104AC000002403E000F03AF938550134A5F10E0353
:104AD0009C42F7D100F014F90D4C0C202178FFF71F
:104AE0006DFE21880D20090AFFF768FE1E20FFF7E2
:104AF00099FE40F04001C9B21E20FFF75FFE064A52
:104B0000A5F10E00136801331360BDE8F081C046C3
:104B1000EE3C0020346C0020CC140020F0B5344B67
:104B200091B01B7807460C4613B94FF0FF365CE096
:104B30000420FF21FFF742FE05201921FFF73EFE6A
:104B40000220FF21FFF73AFE19210320FFF736FE6E
:104B500000F0D0F87A2000F0D9F80B2000F0D6F859
:104B600000F0CEF83B2C01D9002501E0C4F13C0552
:104B7000611E49190620C9B2FFF720FE04F5CE5187
:104B80003F3149190720C1F30721FFF717FE3846C7
:104B900021462646FFF726FE4DB101AC00212046F6
:104BA0002A460CF015FD20462946FFF71BFE1C2067
:104BB000FFF738FE00F0F7011C20FFF7FFFD1F2074
:104BC000FFF730FE40F00801C9B21F20FFF7F6FDE5
:104BD0001F20FFF727FE10F0080FF9D11D20FFF767
:104BE00021FE044A136801331360304611B0F0BD52
:104BF00077460020D014002070B5084D01462C786F
:104C00005CB9062206480CF037FC0648214603F042
:104C1000B1FDFFF733FE01232B7070BD77460020F6
:104C200071460020A000002010B5054802F00AFFE0
:104C3000044802F0A7FE0448FFF7DEFF10BDC0469F
:104C4000684A2100744A21008049002010B5FFF70E
:104C50009BF910BD10B506484FF4A061FFF7F0FEB8
:104C6000044B80B2188008B1FFF7F0FF10BDC046BA
:104C7000105F0020FC5E002010B50388044613B1CD
:104C8000A42B1BD116E0104802F0DCFE0F4802F006
:104C900079FEFFF7C9FF0E4B01221A60FFF7DAFF1A
:104CA0000C4B85211868002203F0B8FC4FF0A403D8
:104CB000238001E08529F1D0012003E04FF00003BB
:104CC0000380032010BDC046684A2100824A2100AB
:104CD000E80B0020841A002010B5044B0448198802
:104CE0000E3189B2FFF71AFF10BDC046FC5E0020EE
:104CF000105F0020014B00221A60704780A00D4019
:104D0000014BFF221A60704780A00D40094B1B68C1
:104D100013F0020FFAD0084B1860064B1B6813F013
:104D2000100FFAD1034B1B6813F0040FFAD0024B9B
:104D30001B6870470C800040088000400A4B1B68CD
:104D400013F0020FFAD0094B00221A60064B1B68C1
:104D500013F0100FFAD1044B1B6813F0040FFAD0B4
:104D6000024B1868C0B270470C80004008800040B9
:104D700010B502F0B9F90120052102F09BF90020DD
:104D800001460246082302F081F910BD0022531C9F
:104D900040089BB201D01A46F9E7002B14BF104619
:104DA0000020704784460020024604E01CF80230D0
:104DB000013243EA00208A42F8D370470C2801D818
:104DC000C0B204E0B0F5867F94BF0D200E2070477E
:104DD00073B50D46164600910190FFF7EFFF0446AC
:104DE0002846FFF7EBFF40EA0410307001AC0020CA
:104DF0002168B1F5867F07D9A1F58672013A431C77
:104E0000120AF254581C02E00C2903D90130A1F116
:104E10000D0333546B469C4201D06C46E8E70130E9
:104E20007CBDC04613F07F4F2DE9F0410CBF00263A
:104E300001261D0C2D048E4617461C46314605B131
:104E4000711C34F0FF0801D0013100E004B10131E0
:104E5000CEEB00003A46FFF7BBFF16B1230E3B54E2
:104E6000013015B1230C3B540130B8F1000F03D0D1
:104E7000230A3B54013000E00CB13C540130BDE842
:104E8000F081C046024B1888013080B2188070470C
:104E9000F03C0020FF2901D9002001E081710120B0
:104EA0007047C046C37A13F0100F0CBF4FF0FF30AD
:104EB000C07B7047C37AC17343F01003C3720120F3
:104EC0007047C046037B13F001031BBF00F158037A
:104ED0000B60184690F857007047C046C37A13F02D
:104EE000400F01D13C2300E003690B6001207047B3
:104EF000C37A016143F04003C37201207047C0468A
:104F0000837A13F002031BBF00F15D030B601846A8
:104F100090F85C007047C046807AC0F3401070473C
:104F2000837A13F0080317BFC36A18460B60806AC0
:104F30007047C046C37A13F0080317BF836C184646
:104F40000B60406C7047C04690F90B30002B01DBC2
:104F5000002004E0D0F888300B60D0F8840070475F
:104F6000837AA0F84C1043F040038372012070470D
:104F700030B51C4690F90C30039D002B01DB00205E
:104F80000EE009B1836E0B6012B190F86C301370B3
:104F900014B1B0F86E3023800DB1036F2B60012087
:104FA00030BDC0460F2B9C4615D9B3F5006F12D803
:104FB000B1F5801F0FD2131E18BF012380F86C308B
:104FC000037B81666FEA43636FEA5363A0F86EC0A8
:104FD0000373012000E000207047C046437B024677
:104FE00013F0100003D0D2F8803001200B6070471E
:104FF000437BC0F8801043F01003437301207047D7
:105000000346D0F8900018B10860B3F88E0000E0B5
:1050100008607047402A28BF402292B2C0F8901022
:10502000A0F88E201046704710B50446084600E0F0
:10503000013003783F2BFBD020640CF08BFB237BEB
:10504000E06343F01003237310BDC04610B504465F
:10505000084600E0013003782F2BFBD0A0640CF051
:1050600079FBE37A606443F00803E37210BDC04645
:1050700070B505460C4600E0013423782F2BFBD099
:1050800020463F210CF0E8FA064630B12846711C54
:10509000FFF7CAFF331B2B6303E020460CF05AFBDB
:1050A0002863EB7A6C6343F00103EB72286B70BDED
:1050B000082A28BF0822D2B210B5044680F84E2034
:1050C00000F14F000CF0D8F994F84E0010BDC04626
:1050D000082A28BF0822D2B210B50446027700F190
:1050E0001D000CF0C9F9A37A207F43F01003A372CE
:1050F00010BDC0462DE9F74F98469DF834308146E3
:105100009246DDF830B0019323B3002547462E4682
:105110001DE018F80630019A08EB0604934201D00E
:105120005E4513D1E41B0AEB0502C1EB09002146E1
:10513000FFF74EFE451939460AEB050022460136B7
:105140000CF09AF92D1908EB0607494601365E4521
:10515000DFD90CE0C1EB00005946FFF739FE4146AC
:1051600004465A4650440CF087F904EB0B052846D8
:10517000BDE8FE8F2DE9F0479A4600230746CAF89E
:10518000003010460C4691460CF0E4FA07EB040898
:1051900006463C183D461FE0BD4203D015F8013CD1
:1051A000262B17D123783D2B14D148462946324669
:1051B0000CF0EAFA70B9741C2C1920462621C4EBB5
:1051C00008020CF0E9F8002808BF4046CAF8004081
:1051D000001B04E001350134A045DDD80020BDE806
:1051E000F087C04610B58C46B0F88E10134609B94A
:1051F000084604E0D0F890006246FFF7BBFF10BD00
:1052000070B590F90B300446002B8C46154601DB37
:10521000002007E0D0F88800D4F8841062462B46BE
:10522000FFF7A8FF70BDC0462DE9F04104460D46CA
:1052300016469846002194220CF0CAF96571A671B1
:10524000A4F80880BDE8F08170B50C4605462068DA
:1052500011461E469DF810C070B12B68324603F807
:1052600000C02068013020602B6818180CF050F93D
:1052700023689B19236001E02A60236070BDC0464B
:105280002DE9F04F8DB005460F4602920021942281
:105290000CF09EF92F603B789B092B713B78C3F390
:1052A00001136B713B7803F00F03082BA8BF082391
:1052B00085F84E307B78AB71BA78FB7843EA0223ED
:1052C0002B812B79012B04D0A24AA34B80201A609A
:1052D00056E13C1D214695F84E2005F14F000CF09B
:1052E000CBF80021052205F10A000CF071F905F157
:1052F0001D02039205F15D02049205F14802059238
:1053000005F1440295F84E30069205F188020792A5
:1053100005F18402E1180892002305F134020B9391
:105320000A93099205F1300B05F1400A05F13C0999
:1053300098461FE1084610F801EB0EF0F003F02B41
:1053400013D1131A9BB2402BA5F88E3088BF40238F
:10535000C5F8900088BFA5F88E30B5F88E10D5F846
:1053600090200023535418460AE14FEA1E130B9372
:105370000B78044603F00F030A930BA803680D2B68
:1053800004D114F8013B0D3303600FE00E2B0DD157
:10539000FF330360214611F8013B1B0203F58673BE
:1053A0000133036062784C1C9B1803600AAB98427F
:1053B00001D01846E2E70B9B984408F0070201234E
:1053C000934005EBD8018A7A13438B7208F1FF33BF
:1053D000222B00F2C580DFE813F04A00C3005A0018
:1053E0002F00560084005E007200C300C3006400FA
:1053F0002300C300290069003700C300C300C300B5
:105400007700C300C3008B00C300C300C300A0002B
:10541000B500C300C300C300C300C300C3007C00C9
:1054200020460A99FFF7BEFCE873A1E020460A99DE
:10543000FFF7B8FC28619BE00A9A0398082A28BF66
:105440000822D2B22A771AE095F85760012E00F2AE
:105450008F8020460A99FFF7A5FC06F12C0325F85A
:10546000130095F85730013385F8573080E00A9AD9
:105470000498082A28BF0822D2B285F85C20214669
:105480000BF0FAFF74E0012385F88C3070E00A9B82
:10549000EC62AB626CE020460A99FFF783FC288738
:1054A00066E02F2300930598069903E026230798CA
:1054B0000899009322460A9BFFF7C6FE58E02F2367
:1054C000009309985946F5E726230093504649462C
:1054D000F0E70A9B214A6B611F4BAC61A5201A6063
:1054E0004EE020460A99FFF75DFCA5F84C003FE02E
:1054F00020460A99FFF756FCC0F3C00300F00702EC
:1055000085F86C3010239340A5F86E3020F00F031F
:10551000934000092B67A8662AE020460A99FFF706
:1055200041FCC0F3C00300F0070285F87830102377
:105530009340A5F87A3020F00F0393400009EB6701
:10554000686715E020460A99FFF72CFCC5F8800033
:105550000EE0C046AC4A2100C0000020C34A210032
:1055600018F0010F04D0084A084B82201A6007E0A7
:105570000A9BE118029BFA189142FFF4DBAE00206F
:105580000DB0BDE8F08FC046EA4A2100C0000020FF
:105590002DE9F743012304460371002021600870C0
:1055A0008946216822790B7843EA82130B702168BF
:1055B00063790A781B0103F0300313430B702168F1
:1055C00094F84E300A7803F00F0313430B702268EF
:1055D000A3795370238922681B0A93702268238958
:1055E000D37023681A1D05E0231893F84F3001305B
:1055F00002F8013C94F84E30164601329842F3D33B
:10560000A37A13F0020101D10D460CE094F85C304E
:10561000002100933246012004F15D030191FFF760
:1056200069FD01253618A37A13F0080F0BD0A36A81
:10563000294600930023019332460320E36AFFF7D3
:1056400059FD03253618A37A13F0100F0CD0237FD1
:1056500029460093002301933246042004F11D03E0
:10566000FFF748FD04253618A37A13F0200F07D062
:105670002946324605200023FFF7D4FB05253618BE
:10568000A37A13F0400F08D0294632460620B4F81A
:105690004C30FFF7C7FB0625361894F90A30002B6B
:1056A00007DA294632460720238FFFF7BBFB072581
:1056B0003618E37A13F0010F0BD0236B29460093C1
:1056C0002F23019332460820636BFFF713FD082553
:1056D0003618E37A13F0080F0BD0636C2946009359
:1056E0002F23019332460B20A36CFFF703FD0B25FC
:1056F0003618E37A13F0100F07D0294632460C20F3
:10570000E37BFFF78FFB0C253618E37A13F0400F8D
:1057100007D0294632460E202369FFF783FB0E256A
:10572000361894F90B30002B0DDAD4F88430294662
:1057300000932623019332460F20D4F88830FFF7D8
:10574000D9FC0F253618237B13F0010F12D0A04689
:10575000002709E0294632461020B8F85630FFF7F6
:1057600061FB01373618102594F8573008F102080C
:105770009F42EFDB237B13F0100F0BD0E36B294626
:1057800000932623019332461420236CFFF7B2FCCA
:105790001425361894F90C30002B15DAA36E1F016E
:1057A00094F86C300BB147F00807B4F86E000009AC
:1057B000FFF7ECFA00F00F032946324617203B436F
:1057C000FFF730FB17253618637B13F0080F15D051
:1057D000636F1F0194F878300BB147F00807B4F8F5
:1057E0007A000009FFF7D2FA00F00F03294632468B
:1057F0001B203B43FFF716FB1B253618637B13F07A
:10580000100F08D0294632461C20D4F88030FFF70C
:1058100009FB1C253618A37B13F0080F0AD0636917
:10582000324600930023019323202946A369FFF702
:1058300061FC36182368F31A432B13DCB4F88E305E
:105840001BB14FF0FF3306F8013B3046D4F89010FF
:10585000B4F88E200BF05CFEB4F88E30C9EB030375
:10586000F01805E0034A044B0021216008461A6045
:10587000BDE8FE83064B2100C000002010B500F0FB
:1058800049FD03F0A9F9014B188010BDF03C002040
:10589000014B18607047C046041600208379012030
:1058A000013B9840C0B2704710B50288044622B14F
:1058B00040F2FD139A421AD10DE00F4800F0FAFDB4
:1058C00000F006FB43F21630FFF7D8FF40F2FD135D
:1058D000238001200FE0094B1B788B4202D100F09E
:1058E000F1FCF3E78829F1D100F068FBEEE74FF017
:1058F00000030380032010BDD40000205B6C002057
:105900002DE9F04F87B00291002406A9019241F8D9
:10591000044D9B46FFF718FB814610B98046039063
:1059200021E03D2105980BF097FE804608F8014BD9
:10593000059C054620460BF00DFFC04381448E496F
:1059400020460BF0BDFE30B96B782F2B04BF08F159
:10595000010809F1FF3909F1FF3218F8021000239C
:10596000039108F8023000F0E3FC03F095F80026FC
:1059700082463446D1E0B9F1000F53D0059D7E49EF
:1059800028460BF09DFEA8B9DAF808704146384663
:105990000CF018F90546002800F0BD8018F8013C0D
:1059A0002F2B02D1B84240F0B68028460BF0D2FE31
:1059B0002F1818E0DAF80C0029460CF003F9074616
:1059C000002800F0A88028460BF0C4FE3A5C3D2A6F
:1059D00002D0222A40F09F80831CFD1828462221F5
:1059E0000BF03AFE074628460DE0BA4200F29380DB
:1059F00002EB090313F8013C03998B4200F0B380DA
:105A00002A290FD0501C41460CF0DCF80246002831
:105A1000EBD180E012F80900222803D0202801D021
:105A2000002878D156B1109A13689E4205D35C4580
:105A300003D201992C230B5501340136109A1368B7
:105A40009E4205D35C4503D201993C230B5501349A
:105A50001099721C0B689A4205D35C4503D20199D8
:105A60002F230B550134DAF80870561C38460BF01A
:105A700071FE109A351813689D420FD9019A9B1B2D
:105A80000BF101011019091B002BACBFFB183B1CCB
:105A90003A4A02F017F824185C4542D210990B6874
:105AA0009D4205D35C4503D2019A3E231355013430
:105AB000DAF80C306E1C1B7833B310990B689E42D9
:105AC00005D35C4503D2019A3B2313550134DAF820
:105AD0000C70751C38460BF03DFE10992E180B68A3
